:020000021000EC
:10F000000C9446F80C9465F80C9465F80C9465F82B
:10F010000C9465F80C9465F80C9465F80C9465F8FC
:10F020000C9465F80C9465F80C9465F80C9465F8EC
:10F030000C9465F80C9465F80C9465F80C9465F8DC
:10F040000C9465F80C9465F80C9465F80C9465F8CC
:10F050000C9465F80C9465F80C9465F80C9465F8BC
:10F060000C9465F80C9465F80C9465F80C9465F8AC
:10F070000C9465F80C9465F80C9465F80C9465F89C
:10F080000C9465F80C9465F80C9465F811241FBE77
:10F09000CFEFD0E1DEBFCDBF11E0A0E0B1E0E8E707
:10F0A000F9EF01E00BBF02C007900D92A230B1074B
:10F0B000D9F712E0A2E0B1E001C01D92AC30B10777
:10F0C000E1F70E9469F90C94BAFC0C9400F8909155
:10F0D0000001913019F0923029F008955D9BFECF28
:10F0E0008CB9089590919B0095FFFCCF80939C0074
:10F0F0000895CF93982F9595959595959595905DB5
:10F100008F70C82F8A3044F4C05D892F0E9467F841
:10F110008C2FCF910C9467F8C95A892F0E9467F8F9
:10F120008C2FCF910C9467F8CF92DF92EF92FF92E1
:10F1300080910001813061F1823031F080E0FF90F8
:10F14000EF90DF90CF900895C12CD12C7601809163
:10F150009B0087FD16C08FEFC81AD80AE80AF80A84
:10F1600081E4C81682E4D8068FE0E806F10478F35B
:10F17000E0910201F0910301099580919B0087FFC6
:10F18000EACF80919C00FF90EF90DF90CF900895A0
:10F19000C12CD12C76015F9914C08FEFC81AD80A00
:10F1A000E80AF80A81E4C81682E4D8068FE0E80687
:10F1B000F10488F3E0910201F091030109955F9B4E
:10F1C000ECCF8CB1FF90EF90DF90CF900895CF936C
:10F1D0000E9494F8C82F0E9467F8C13634F4C033F7
:10F1E0000CF0C0538C2FCF910895C7558C2FCF9121
:10F1F0000895CF930E94E7F8C82F0E94E7F890E1A6
:10F20000C99F800D1124CF91089520910001815054
:10F2100060F0213059F02230D1F790919B0097FF98
:10F22000FCCF90919C008150A0F708955F9BFECF8A
:10F230009CB1EDCFCF93C82F0E9494F8803279F023
:10F24000809104018F5F80930401853011F0CF918C
:10F250000895E0910201F0910301CF91099484E1B6
:10F260000E9467F88C2F0E9467F880E1CF910C9480
:10F2700067F80E9494F8803269F0809104018F5FF2
:10F2800080930401853009F00895E0910201F09126
:10F290000301099484E10E9467F880E10C9467F807
:10F2A00015C0979A2FEF31EE94E0215030409040F6
:10F2B000E1F700C0000097982FEF31EE94E0215065
:10F2C00030409040E1F700C0000081508111E9CF4B
:10F2D00008950000809161008F7780936100809194
:10F2E00061008F7B809361008091620080688093D1
:10F2F00062008091620080648093620007997DC003
:10F3000081E080930001E0E0F0E0E491EF3F09F458
:10F3100087C090910001813009F488C0823069F47F
:10F3200083E3809399001092980010929B0086E0EE
:10F3300080939D0088E180939A008F9A892F8E5F39
:10F340009D3FC1F0979A2FEF31EE94E0215030406D
:10F350009040E1F700C000009798EFEFF1EE24E055
:10F36000E150F0402040E1F700C00000982F8150AC
:10F370009111E8CF992493940E9494F88033D1F1AD
:10F38000813309F45FC0803409F47DC0813409F40D
:10F3900084C0823409F493C0853409F496C0803562
:10F3A00049F1823539F1813529F1853509F493C068
:10F3B000863509F49BC0843609F4A1C0843709F46A
:10F3C0000BC1853709F466C1863709F474C08132F0
:10F3D00009F48EC1809104018F5F80930401853010
:10F3E00059F6E0910201F091030109950E9494F809
:10F3F000803331F60E9439F9BFCF069B9DC28091C0
:10F400000001982FE0E0F0E0E491EF3F49F0811136
:10F4100082CFE0910201F0910301099580910001F2
:10F42000811177CF81E08093000191E083E389B976
:10F43000109290001BB886E08093950088E18AB90D
:10F44000892F6CCF0E9494F8803209F0C3CF84E1F9
:10F450000E9467F881E40E9467F886E50E9467F8D9
:10F4600082E50E9467F880E20E9467F889E40E94C2
:10F4700067F883E50E9467F880E50E9467F880E1FD
:10F480000E9467F879CF0E9494F8863808F4B2CFCA
:10F490000E9494F80E9439F96FCF0E9494F8803846
:10F4A00009F41EC1813809F41FC1823809F456C11C
:10F4B000883909F404C180E00E941AF95DCF84E123
:10F4C0000E9405F90E9439F957CF85E00E9405F99D
:10F4D0000E9439F951CF0E9494F8809305010E944F
:10F4E00094F8809306010E9439F946CF0E9494F85F
:10F4F000803309F4E8C083E00E9405F9DCCF0E9464
:10F5000094F8809308020E9494F8809307028091F7
:10F510000B028E7F80930B020E9494F8853429F4AD
:10F5200080910B02816080930B0280910702909181
:10F530000802892BA1F067E0E62E61E0F62E00E0DC
:10F5400010E00E9494F8F70181937F010F5F1F4F35
:10F5500080910702909108020817190790F30E9402
:10F5600094F8803209F036CF80910B0280FF08C1F9
:10F570008091050190910601880F991F90930601D3
:10F58000809305012091070230910802232BE9F0B6
:10F5900047E0E42E41E0F42E00E010E0F701619135
:10F5A0007F010E94ADFC80910501909106010196BA
:10F5B00090930601809305010F5F1F4F2091070272
:10F5C000309108020217130748F384E10E9467F89C
:10F5D00080E10E9467F8D0CE0E9494F880930802E0
:10F5E0000E9494F880930702809105019091060192
:10F5F00020910B0297FD3CC12D7F20930B02880FB9
:10F60000991F90930601809305010E9494F8853418
:10F6100009F428C180910B028E7F80930B020E9417
:10F6200094F8803209F0A8CE84E10E9467F88091B6
:10F63000070290910802892B09F43DC000E010E018
:10F64000809105019091060116C0FC0184910E94F1
:10F6500067F880910501909106010196909306014B
:10F66000809305010F5F1F4F209107023091080220
:10F670000217130700F520910B0220FD73C021FF34
:10F68000E4CFA0E0B0E01196ABBFFC0187910E94EF
:10F6900067F8DFCF0E9494F8803209F09BCE84E1B6
:10F6A0000E9467F88EE10E9467F887E90E9467F878
:10F6B00082E00E9467F880E10E9467F85DCE83E0F7
:10F6C0000E941AF959CE0E9494F80E9494F8182FBB
:10F6D0000E9494F8112309F4CFC0113009F4D0C06E
:10F6E00082E00E941AF948CE81E00E941AF944CEC5
:10F6F0000E9494F8813209F03FCE0E9494F8813242
:10F7000009F03ACE8F9A9798109209028AE00E94E7
:10F7100067F88DE00E9467F88AE30E9467F880E24C
:10F720000E9467F80E9494F8182F0E9467F8143717
:10F7300009F4E4C0123709F4CBC0173709F4B1C09B
:10F74000153709F4A5C0123609F4DFC01A36F1F6F0
:10F75000E0910201F09103010995D8CF80E10E9468
:10F760001AF90ACE0E94A5FC0E9467F88091050153
:10F77000909106010196909306018093050172CF46
:10F780008091060187FD80C010920A0280E08BBF45
:10F790008091050190910601880F991F90930601B1
:10F7A000809305018091070280FF09C080910702C4
:10F7B0009091080201969093080280930702F894B2
:10F7C000E199FECF1127E0910501F0910601C7E014
:10F7D000D1E08091070290910802103091F40091DD
:10F7E000680001700130D9F303E000936800E895E8
:10F7F0000091680001700130D9F301E100936800C5
:10F80000E895099019900091680001700130D9F3D2
:10F8100001E000936800E8951395103898F01127DF
:10F820000091680001700130D9F305E00093680091
:10F83000E8950091680001700130D9F301E100936F
:10F840006800E8953296029709F0C7CF103011F0A2
:10F850000296E5CF112484E10E9467F880E10E94BE
:10F8600067F88ACD80910B02816080930B02D7CE1E
:10F87000226020930B02C3CE8EE10E941AF97CCD48
:10F8800087E90E941AF978CD90920A0281E07FCF31
:10F890000E9494F80E9467F80E9494F80E9467F80A
:10F8A000F7CF0E9494F80E9467F80E94F9F8082F99
:10F8B0000E94F9F8182F0E9494F80E9467F80E949D
:10F8C000F9F8B02EA12CF501E10FF11D80831ECFB8
:10F8D0000E9494F80E9467F80E94F9F8082F0E948D
:10F8E000F9F8182F8DE30E9467F8D02EC12CF6018D
:10F8F000E10FF11D80810E9479F808CF879920C01F
:10F90000979A80E30E9467F801CF82E60E9467F829
:10F9100085E70E9467F883E70E9467F880E885BF63
:10F9200010926D0010926C00E0E0F1E1819130974F
:10F93000E9F7E0E0F1E1FACF82E080930001E3CC67
:10F94000979881E30E9467F8E1CEE199FECF9FBBD3
:10F950008EBBE09A99278DB30895262FE199FECFAB
:10F960009FBB8EBB2DBB0FB6F894E29AE19A0FBEF7
:08F9700001960895F894FFCF01
:02F9780001800C
:040000031000F000F9
:00000001FF
